:100000000C9451000C9479000C9479000C947900B4
:100010000C9479000C9479000C9479000C9479007C
:100020000C9479000C9479000C9479000C9479006C
:100030000C9479000C9479000C94E9210C949A2288
:100040000C9479000C9479000C9479000C9479004C
:100050000C9479000C9479000C9479000C9479003C
:100060000C9479000C9479000C94A0210C947A21C2
:100070000C9479000C9479000C9479000C9479001C
:100080000C9479000C9479000C9479000C9479000C
:100090000C9416210C9479000C9479000C9479003E
:1000A000F22611241FBECFEFCDBFDFE3DEBF18E283
:1000B000A0E0B8E2E0EAF4E802C005900D92AC30AE
:1000C000B107D9F728E3ACE0B8E201C01D92A7332D
:1000D000B207E1F710E0C1E5D0E004C02197FE01CE
:1000E0000E94F337C035D107C9F70E9440280C940D
:1000F000A43C0C9400004091D6355091D735403443
:100100005105E8F081E08093D8358091D935909100
:10011000DA35A091DB35B091DC358F3F2FEF9207B8
:10012000A207B20729F10196A11DB11D8093D9350F
:100130009093DA35A093DB35B093DC3508952091A8
:10014000D4353091D535F901EE0FFF1FEE5AFA4C38
:10015000808361832F5F3F4F2F7333272093D435E4
:100160003093D5354F5F5F4F4093D6355093D73599
:100170000895FC01AC0142575F4F8FEF9FEF219133
:10018000922728E0BC01880F991F77FF04C031E255
:10019000832730E193272150A9F7E417F50779F772
:1001A0000895FC014091CA2C5091CB2C403251054E
:1001B000F0F081E08093CC2C8091CD2C9091CE2CCE
:1001C000A091CF2CB091D02C8F3F2FEF9207A20798
:1001D000B20759F00196A11DB11D8093CD2C9093CB
:1001E000CE2CA093CF2CB093D02C80E008952091FA
:1001F000C82C3091C92C95E0929FD001939FB00DEF
:100200001124AA5DB34D01900D929A95E1F72F5FED
:100210003F4F2F7133272093C82C3093C92C4F5F49
:100220005F4F4093CA2C5093CB2C81E00895FC0182
:100230008081861729F060831282138280E00895FE
:1002400091818917D9F3428153812091242B3091D8
:10025000252B4217530790F3818312821382148255
:100260001582168281E00895CF93DF9390E0FC0120
:10027000EB51F24420812F3F71F0FC01E553F24431
:10028000A08130E2A39FD0011124BC5F61307105D1
:1002900029F411962C93DF91CF9108958F549244B5
:1002A000EC01E881EF3F89F0CD014096E80FF92F8E
:1002B000F11D9FB7F89412962C93808162307105DE
:1002C00039F4886080839FBFE6CFF0E0E0E0F1CFB3
:1002D000877FF8CF282F30E0F901E956F244E0811A
:1002E000EE2309F1E13021F0F0F0E63098F00895C6
:1002F0004091010A2F543244F90120812C5F81E0A2
:1003000090E001C0880F2A95EAF7809584238093B6
:10031000010A089580E1E89FF0011124E05AF54FA9
:1003200081818F7E81830895FF920F931F93CF93D6
:10033000DF93082F10E0F801EB51F244F0809FEFBB
:10034000F916A1F0EB018B3210F40E946A01F8015A
:10035000E553F244E08180E2E89FF0011124FC5F64
:1003600080818F2159F0CD2B39F4F682DF91CF9126
:100370001F910F91FF900895F582F8CFD801AF54E7
:10038000B2448C91309771F08F3F61F07096E80F16
:10039000F11D9FB7F8948081CD2B39F4877F80833E
:1003A0009FBFE4CFF0E0E0E0F4CF8860F8CF0F9398
:1003B0001F93CF93082F10E0F801EB51F244C08156
:1003C000CF3FA9F00E946A01F801E553F244E081B1
:1003D00080E2E89FF0011124FC5F8085C82381E062
:1003E00090E009F480E0CF911F910F91089580E093
:1003F00090E0F9CFCF93DF938FB7F8942091152A2F
:100400003091162A4091172A5091182AE091BA0A81
:100410009091B60A90FF06C02F5F3F4F4F4F5F4F3E
:10042000E091BA0A8FBFA091132AB091142AC0910B
:10043000112AD091122A0E940038EC9F9001ED9F62
:10044000300D1124620F731F811D911DDF91CF911B
:100450000895AF92BF92CF92DF92EF92FF920F93E7
:100460001F93CF93DF936C017B018B01040F151F4A
:10047000EB015E01AE18BF08C017D10759F06991B2
:10048000D601ED91FC910190F081E02DC601099516
:10049000892B79F7C501DF91CF911F910F91FF90C3
:1004A000EF90DF90CF90BF90AF900895FC015489FA
:1004B0004589252F30E0842F90E0821B930B541741
:1004C00010F0CF96089501970895FC0192898389D1
:1004D000981761F0A389AE0FBF2FB11D59968C916B
:1004E00093899F5F9F73938B90E008958FEF9FEFA9
:1004F0000895FC0192898389981731F08389E80F68
:10050000F11D818D90E008958FEF9FEF0895FC011C
:1005100092892389892F90E0805C9F4F821B9109EB
:100520008F7399270895CF93DF93EC01E881F981C8
:100530000680F781E02D0995EC85FD8586818F7316
:100540008683EC85FD8585818F7585838B898A8B74
:10055000198ADF91CF910895CF92DF92EF92FF92A7
:100560000F931F93CF93DF93EC016A017B01022F5E
:100570008989882339F0E881F9810288F389E02D9F
:10058000CE01099598898091E205892B8093E20537
:100590001FB7F89460E070E281EA97E0A701960146
:1005A0000E94B23769017A018FEFC81AD80AE80AA7
:1005B000F80AF694E794D794C794EC85FD85868174
:1005C0008D7F8683EC85FD8586818683198AA0913F
:1005D00023110A2E000CBB0BA70196010E940B38B9
:1005E00020E034E040E050E00E94D437EC85FD8507
:1005F000C20ED31EE41EF51EC086D186EC85FD8595
:100600000783EC85FD858681806C8683EC85FD857E
:100610008581806885838E858B3220F462E070E06E
:100620000E9434018F858B3220F461E070E00E94DB
:1006300094018F858B3220F461E070E00E943401D8
:100640001FBFDF91CF911F910F91FF90EF90DF902F
:10065000CF900895CF93DF93FC0194898589C48559
:10066000D585981306C08D818F7D8D83DF91CF91C5
:100670000895A589AE0FBF2FB11DA75ABF4F2C916A
:10068000858990E001968F739927858B80E48C8310
:10069000A485B58512962C93948985899813E6CF05
:1006A000A485B58515968C9115978F7D15968C939D
:1006B00087898823D9F2808D80931301178AD6CF3A
:1006C000DC011C96ED91FC910FB607FE03C025815D
:1006D00025FD04C0248125FD0C942A030895EF9282
:1006E000FF920F931F93CF93DF93EC0181E0898BEF
:1006F0009C898D8998131CC0AC85BD8514968C91FE
:10070000149785FF15C012966C93AC85BD8580E467
:1007100014968C93EC85FD8585818F7D858381E0A2
:1007200090E0DF91CF911F910F91FF90EF9008958E
:100730008091110180FF08C080911301888F8E89FC
:100740008093130181E08F8BF62E0C8910E00F5FF0
:100750001F4F0F731127E02E8D898E1104C0CE011B
:100760000E946003F9CFEC89EC0FFD2FF11DE75AD1
:10077000FF4FF0820C8BEC85FD8585818062CECFAA
:10078000CF93DF93FC0121892223C9F0EC018091F2
:10079000110180FF08C080911301808F86898093AA
:1007A000130181E0878BEC85FD85858185FD03C084
:1007B000848186FD04C0CE010E946003F4CFDF91E6
:1007C000CF91089581E008950F9391E09093FA29D5
:1007D0001092F9296093F7297093F8294093F6292C
:1007E0002093F5291092F4291092F3290093F2290D
:1007F000880F8093F12923E030E044E050E08091BD
:10080000F629882341F02093EF293093F029809135
:10081000F1298E7F0BC08091F529882351F04093F8
:10082000EF295093F0298091F12981608093A708E6
:1008300008C08091F629811104C08091F529882390
:1008400011F38091F9298823E1F38091F92983300C
:10085000B1F28091F529882321F08091F3290F913D
:1008600008958091F929823031F0853031F081305E
:1008700031F480E0F4CF81E0F2CF83E0F0CF84E088
:10088000EECFE0EAF8E091859066918722E030E0D3
:100890002093EF293093F0298093E1291092E029E9
:1008A000089581E08093E0291092E12993E09093EC
:1008B000AA089091AB0891FF10C01092ED29E09129
:1008C000DE29F091DF2909958093EC2985E090E0FD
:1008D0008093EF299093F02908951092EE29809348
:1008E000EB2986E090E0F4CF8F929F92AF92BF9277
:1008F000CF92DF92EF92FF92CF93DF9360342DE09F
:10090000720723E08207910508F454C0611525E3BE
:1009100072072CE08207910508F445C060387F44D7
:100920008241910508F046C0C8E7D0E020E432E4F7
:100930004FE050E08090002890900128A09002287D
:10094000B0900328C501B4010E94B23769017A0151
:100950008AE0C81AD108E108F108C501B40120E411
:1009600032E44FE050E00E94B237DE010E940038CE
:1009700028EE33E040E050E00E94B237C21AD30ABA
:10098000E40AF50AF694E794D794C794C092A608AF
:10099000DF91CF91FF90EF90DF90CF90BF90AF901D
:1009A0009F908F900895CCE2D1E020E83AE146E0B4
:1009B00050E0C0CFC8EED3E020EA36E841E050E096
:1009C000B9CF6093DC297093DD2908956093DA290B
:1009D0007093DB290895E091DC29F091DD293097AF
:1009E00041F01092D9291092D82909958091D829DF
:1009F000089580E00895E091DA29F091DB2930979D
:100A000059F03091D7292091D629321728F0109229
:100A1000D7298093D629099408950895E091D7297C
:100A20008091D629E81730F4F0E0EA5AF64D80813B
:100A300090E008958FEF9FEF08959091D7298091CE
:100A4000D6292FEF3FEF981748F4E92FF0E0EA5A44
:100A5000F64D208130E09F5F9093D729C90108951A
:100A60008091D6299091D729891B990B0895CF920F
:100A7000DF92EF92FF920F931F93CF93DF937C014E
:100A80008A01EB016B01C40ED51ECC15DD0551F0BA
:100A90006991D701ED91FC910190F081E02DC701A2
:100AA0000995F3CFC801DF91CF911F910F91FF906E
:100AB000EF90DF90CF9008952091D82927FF08C0AC
:100AC00021E030E0FC012283338390E080E0089550
:100AD0008091D929E82FF0E0EA52F74D60838F5FCB
:100AE0008093D9298093D82981E090E00895DC0192
:100AF000ED91FC91008CF18DE02D61E009940F9354
:100B00008091EF299091F0290197A1F48091FA2921
:100B1000811112C0062F20E04091D82966ED78E2BD
:100B20008091D5280E94E4031092D9291092D829E7
:100B30000F91089580E0F8CF81E0F6CF6093D5283B
:100B40001092D9291092D8290895DC01ED91FC91D9
:100B5000048CF58DE02D21E009940F9386E599E250
:100B60008093E2299093E3298091EF299091F029D5
:100B70000197C9F48091FA29811117C0FA0141380F
:100B8000510510F0E0E8F0E0022F862F2E2F40E014
:100B900070E060E00E94E4031092D7298093D62988
:100BA00090E00F91089580E0F7CF81E0F5CFCB0181
:100BB000BA010C947404E0EAF8E01382168281E032
:100BC0008583148611861092EF291092F0290895DA
:100BD0001092D7291092D6291092D9291092D8298B
:100BE0008091EF299091F029892BD9F482E090E04F
:100BF0008093EF299093F0291092EE291092ED291D
:100C00001092E0291092E1291092D4281092EB2939
:100C1000660F6093AC0881EE8093A90881E0809311
:100C2000A3088BEE94E08093DE299093DF2986ED74
:100C300098E28093E4299093E5298BEF94E08093E8
:100C4000E9299093EA2986E599E28093E629909331
:100C5000E72980E88093E82908951092D729109217
:100C6000D6291092D9291092D8298091EF299091F4
:100C7000F029892B41F562E070E086E10E943401A1
:100C800062E070E087E10E9434018091E305809387
:100C9000E30581E090E08093EF299093F029109292
:100CA000F3291092F4291092FA291092F92981EC73
:100CB0008093A30860EA76E881E090E00E947404E3
:100CC00081E08093A508089590E080E00895FB01FD
:100CD000DC0112962D913C91AB0170E060E0420F77
:100CE000531F611D711D2E0F3F1F4115510561409E
:100CF000710510F02FEF3FEFFC012283338308953D
:100D0000CF92DF92EF92FF920F931F93CF93DF93D7
:100D1000CDB7DEB72597CDBFDEBF8C01F62E6A01B9
:100D2000E22E0E941701882389F0F801818188232F
:100D3000B9F0CE01019625E0FC0111922A95E9F760
:100D4000E98221E02D830E94D1000AC0B601C801CA
:100D50000E9467066F2DC8010E9417018111E5CF1F
:100D60002596CDBFDEBFDF91CF911F910F91FF90F0
:100D7000EF90DF90CF9008957F928F929F92AF92E5
:100D8000BF92CF92DF92EF92FF920F931F93CF9378
:100D9000DF93CDB7DEB72597CDBFDEBFC42E4901A7
:100DA0007B018C01D12C85E0782ECE0101965C016F
:100DB000F70161917F01C8010E941701882379F032
:100DC000F80181818823B9F0F501872D11928A9568
:100DD000E9F7CA82DB82C5010E94D1000CC0B401D0
:100DE000C8010E946706F70131976081C8010E941F
:100DF00017018111E5CFD394095F1F4F9AE0D912F3
:100E0000D7CF2596CDBFDEBFDF91CF911F910F9138
:100E1000FF90EF90DF90CF90BF90AF909F908F901A
:100E20007F900895FC011082118212821382148235
:100E3000158216820895CF92DF92FF920F931F932F
:100E4000CF93DF93CDB7DEB72797CDBFDEBF10922C
:100E5000C62C1092C72C1092C82C1092C92C10923C
:100E6000CA2C1092CB2C1092CC2C1092CD2C10921C
:100E7000CE2C1092CF2C1092D02C48E2C42E4BE2F4
:100E8000D42E57E0F52E8E010F5F1F4FF8018F2DE6
:100E900011928A95E9F7C8010E941207F801D6015C
:100EA0008F2D01900D928A95E1F7E7E0CE0ED11CCF
:100EB000FEE6CF16FBE2DF0649F72EE6C22E2BE256
:100EC000D22E37E0F32EF8018F2D11928A95E9F793
:100ED000C8010E941207F801D6018F2D01900D92D2
:100EE0008A95E1F7E7E0CE0ED11CF4EBCF16FBE2DA
:100EF000DF0649F784EBC82E8BE2D82E97E0F92E57
:100F0000F8018F2D11928A95E9F7C8010E94120706
:100F1000F801D6018F2D01900D928A95E1F7E7E057
:100F2000CE0ED11CFAEFCF16FBE2DF0649F7F8012F
:100F30008F2D11928A95E9F7C8010E94120787E068
:100F4000F801AAEFBBE201900D928A95E1F7F80152
:100F50008F2D11928A95E9F7C8010E94120787E048
:100F6000F801A1E0BCE201900D928A95E1F7F80149
:100F70008F2D11928A95E9F7C8010E94120787E028
:100F8000F801A8E0BCE201900D928A95E1F7F80122
:100F90008F2D11928A95E9F7C8010E94120787E008
:100FA000F801AFE0BCE201900D928A95E1F7F801FB
:100FB0008F2D11928A95E9F7C8010E94120787E0E8
:100FC000F801A6E1BCE201900D928A95E1F7F801E3
:100FD0001192FA94E9F7C8010E94120787E0F8011C
:100FE000ADE1BCE201900D928A95E1F71092242CBC
:100FF0001092252C2796CDBFDEBFDF91CF911F9198
:101000000F91FF90DF90CF900895262F269526957B
:101010002695820F911DFC01808190E0609567709C
:1010200002C0969587956A95E2F781700895FC0154
:10103000119220E2DF01322F1D923A95E9F7819655
:10104000DC011D922A95E9F70895AB01DC018D9131
:101050009C91DC01ED91FC910680F781E02D20E16F
:1010600030E070E060E00995882311F080E0089599
:1010700082E00895CF92DF92EF92FF92262FFC013B
:10108000E757FF4F80819181A281B3816C017D017F
:101090003DE0CC0CDD1CEE1CFF1C3A95D1F7C826B8
:1010A000D926EA26FB26D701C60141E1B695A795C8
:1010B000979587954A95D1F7C826D926EA26FB2623
:1010C000C701B60155E0660F771F881F991F5A9513
:1010D000D1F76C257D258E259F25608371838283C2
:1010E0009383222331F030E050E040E00E94B23799
:1010F000262F822FFF90EF90DF90CF900895CF930F
:10110000DF939C0126593A4FEC01C651DD4FDE01B9
:10111000C217D30791F02A96FE013A978081811178
:10112000F6CF81E08D9389E0FB0101900D928A95C5
:10113000E1F781E0DF91CF91089588819981AA81BB
:10114000BB818F3F2FEF9207A207B20739F00196BC
:10115000A11DB11D88839983AA83BB8380E0EACF58
:101160000F931F93CF93DF93FB012181DC012111AA
:101170003AC0A357BF4F2081211138C021E01296F9
:101180002C931297238113962C93139722811496F4
:101190002C93DC01A156BF4FAC014D515D4FEA01CC
:1011A000288139812034310508F442C0FC01EB511B
:1011B000FD4F21E02083319640815181628173810E
:1011C0004F3FDFEF5D076D077D0741F04F5F5F4FDA
:1011D0006F4F7F4F4083518362837383DF91CF9141
:1011E0001F910F910895AB56BF4FC5CF2130A1F489
:1011F00012962C911297222361F213963C91139729
:1012000023813213C6CF14963C9114972281321356
:10121000C0CF12961C92BDCF223021F421E015964A
:101220002C93B7CF233009F0B4CF15961C92B1CFD1
:10123000EC01CF51DD4F6881798199E0969F800163
:10124000979F100D1124A00FB11F01900D929A9538
:10125000E1F7CB0101968F739927888399832F5FDC
:101260003F4FFA0120833183B9CFCF92DF92EF92C3
:10127000FF921F93CF93DF936B017C01142FCBE080
:10128000D1E388818823A1F08E819F81A885B985CB
:101290008C159D05AE05BF0559F48981811308C0E1
:1012A000BE016F5F7F4F81E29EE20E94B00818820C
:1012B0002A9683E3CB38D80721F7DF91CF911F918E
:1012C000FF90EF90DF90CF900895DF92EF92FF9222
:1012D0000F931F93CF93DF93CDB7DEB72997CDBF81
:1012E000DEBF7C01D62E8A01FA0182818823E1F0DB
:1012F000F701EB57FF4F80819181A281B381FA0101
:101300002381348141E049836A833B832C831D829E
:101310008E839F83A887B987BE016F5F7F4FC70108
:101320000E94B008F8011282F80185818823D9F063
:10133000F701EB57FF4F80819181A281B381F801C2
:10134000248133E03983DA822B831C821D828E83D1
:101350009F83A887B987BE016F5F7F4FC7010E9437
:10136000B008F80115822996CDBFDEBFDF91CF917D
:101370001F910F91FF90EF90DF900895CF93DF932F
:10138000EC0186599A4FFE01E651FD4F8E179F07DB
:1013900019F010823A96FACFAE0143575F4F60E0E2
:1013A000CE010E946509AE014B565F4F61E0CE0150
:1013B000DF91CF910C946509CF93DF93EB01DC01B2
:1013C000AD57BF4F2C91213089F038F02230B9F061
:1013D000233089F1DF91CF910895888190E00196C3
:1013E000642F70E00E948A378883F4CF688161118E
:1013F00003C06FEF640F01C061506883EBCF4230D0
:1014000010F41882E7CF88819981992369F0282FF9
:1014100030E02F5F3F4F4217130609F018F419828E
:101420006EEFE8CF8F5FE0CF811103C081E0898349
:10143000DBCF8150D9CF642F0E943A08D5CF562FE9
:101440005095577021E030E001C0220F5A95EAF71D
:10145000669566956695FC01E60FF11D8081442333
:1014600019F0282B2083089520952823FBCF0F9374
:101470001F93CF93DF934115510511F490E019C0EC
:1014800021153105D9F3E9018A0184EB9AE20E9422
:101490009E05AE01B80184EB9AE20E943705C81799
:1014A000D90761F784EB9AE20E94770591E08111F8
:1014B000E5CF892FDF91CF911F910F910895CF93A1
:1014C000DF93EC0184EB9AE20E942D066A817B8116
:1014D0008C819D81611571058105910511F00E9436
:1014E000740481E0DF91CF910895CF93DF93FC01E5
:1014F000EC5FFE4F408151814F3F5105C1F0B8F084
:10150000329621E02083319680819181A281B3813E
:101510008F3F2FEF9207A207B20739F00196A11D66
:10152000B11D80839183A283B38380E016C0DC0168
:10153000AE5FBE4F2D913C911197EB016881820FF8
:10154000931FEC0168832F5F3F4F33272D933C930C
:101550004F5F5F4F4083518381E0DF91CF910895CA
:10156000EF92FF920F931F93CF93DF9300D0CDB7ED
:10157000DEB78C016A83E42EF22EBE016E5F7F4FD0
:101580000E94750A8E2D8F778983BE016F5F7F4F12
:10159000C8010E94750A8F2D8F778983BE016F5F06
:1015A0007F4FC8010E94750A0F900F90DF91CF9175
:1015B0001F910F91FF90EF90089508956091DD3590
:1015C00070E085E00E9494016091DE3570E086E075
:1015D0000C94940120914B3530914C3521153105F7
:1015E000C9F08091473590914835FC01E95BFB4C8F
:1015F0006081019699278093473590934835215013
:10160000310920934B3530934C3589E19AE20E94A1
:101610006F03E0CF0895DC01ED91FC910088F18922
:10162000E02D23E030E009940F931F93CF93FC014A
:10163000C62F81E06436C8F580819181A281B38193
:101640008C019D014DE0000F111F221F331F4A9591
:10165000D1F7082719272A273B27D901C80151E1CB
:10166000B695A795979587955A95D1F70827192785
:101670002A273B27C901B801A5E0660F771F881FFD
:10168000991FAA95D1F76027712782279327608336
:1016900071838283938324E630E040E050E00E942F
:1016A000B23781E06C1708F080E0CF911F910F9165
:1016B0000895CF92DF92EF92FF92FC01262F6623CE
:1016C000A9F180819181A281B3816C017D013DE00E
:1016D000CC0CDD1CEE1CFF1C3A95D1F7C826D92690
:1016E000EA26FB26D701C60141E1B695A795979555
:1016F00087954A95D1F7C826D926EA26FB26C70141
:10170000B60155E0660F771F881F991F5A95D1F7CC
:101710006C257D258E259F2560837183828393832D
:1017200030E050E040E00E94B237262F822FFF9039
:10173000EF90DF90CF900895882321F0843018F047
:1017400083E0089581E00895882321F08B3018F01C
:101750008AE0089581E008959F92AF92BF92CF9260
:10176000DF92EF92FF920F931F93CF93DF93CDB74A
:10177000DEB72897CDBFDEBF8C0198E09E012F5FBA
:101780003F4FF901492F11924A95E9F781E08A8389
:101790008D835801EDE8AE0EB11CF901D501492F3A
:1017A00001900D924A95E1F7F901492F11924A955E
:1017B000E9F78A838D836801E5E9CE0ED11CF90132
:1017C000D60101900D929A95E1F77801FDE9EF0EAF
:1017D000F11CF701108231968083F80184AD0E94DC
:1017E000A40B982EF801E558FF4F80810E94A40BAE
:1017F000F801ED57FF4F9081913061F49FEF990D03
:10180000F50190839FEF980FF6019083980E9A94BC
:10181000F70190822896CDBFDEBFDF91CF911F9157
:101820000F91FF90EF90DF90CF90BF90AF909F907F
:1018300008957F928F929F92AF92BF92CF92DF9244
:10184000EF92FF920F931F93CF93DF936C018B0165
:101850007A01FB0184AD0E94A40B782EF7019480DD
:10186000C581C91518F48C2FC92D982E812CCF5FF6
:10187000C919A92CB12CD0E0781409F457C0F8018B
:101880008081882309F44CC0F7016585C6010E9458
:10189000140B882319F1F7016685660F6F5FC60187
:1018A0000E94590BF801218130E02A193B09F70108
:1018B0009685891BA901480F511D87FD5A95CA01BC
:1018C00097FF03C08C0F9D1FFBCF8C179D071CF04B
:1018D0008C1B9D0BFACF890DF8018183F701878559
:1018E0008823F1F06585C6010E94140B8823C1F09E
:1018F000F7016785660F6F5FC6010E94590BF701FC
:101900009785482F491B550BF8018281840F952F2D
:10191000911D97FD09C0853608F084E6F8018283A1
:1019200083940A5F1F4FA8CF80E0F8CFDF91CF915B
:101930001F910F91FF90EF90DF90CF90BF90AF90ED
:101940009F908F907F9008952F923F924F925F9239
:101950007F928F929F92AF92BF92CF92DF92EF923F
:10196000FF920F931F93CF93DF93CDB7DEB76497AA
:10197000CDBFDEBF2C017B018A01FA01808181117C
:1019800001C08AE00E94A40B782EF70184AFF80111
:101990008681F70186AF1B861C861D861E861F86E4
:1019A000188A198A1A8A1B8A1C8A772009F442C06D
:1019B000F8019181791608F4972D9923D9F19E01A8
:1019C0002F5F3F4F8AE0F90111928A95E9F7F901FB
:1019D00080E041E05E2F521B571538F4890F8715C0
:1019E00010F0871940833196F5CFF8018281672D79
:1019F0000E947E376E01FBE0CF0ED11CF601872CD2
:101A0000912C5401A91AB108AC18BD088E2F8C195D
:101A1000871580F4C5018E0F9F1FB4010E949E3769
:101A2000D901A80FB11D81E09C91911101C080E006
:101A30008193ECCFF8018581D4808D1508F4D82EE0
:101A400057011E01FBE02F0E311C99249394812C29
:101A5000E12CF8018781853608F084E6F501828360
:101A6000F80180850E949C0BF5018383F801818534
:101A7000853608F084E6853008F485E0F501848336
:101A8000F8018285F5018583871400F11082839423
:101A9000F6E0AF0EB11C2FEF221A320A3AE08312A1
:101AA000D8CF6496CDBFDEBFDF91CF911F910F914C
:101AB000FF90EF90DF90CF90BF90AF909F908F906E
:101AC0007F905F904F903F902F900895F10180811B
:101AD000F5018083811104C0F80183858823B9F260
:101AE000F801F48025812F1518F4822F2F2DF82E60
:101AF000CC24C394C20ECF18F8018381823029F11F
:101B000048F48823A9F08130C9F0F501F182E3940B
:101B1000DF2CBDCF843009F442C0D8F18530A9F75D
:101B20008E2D86956C2D0E947E37E0FC0BC004C084
:101B30008E2D6C2D0E947E37F90EE7CF8E2D6C2DE9
:101B40000E947E37F22EF91AE0CFF1E0FC15E8F69C
:101B5000EE2009F475C08D2D90E04F2D50E09920B6
:101B600081F00196622F70E0861797070CF06BC02A
:101B70008417950754F2F22E2817190634F2F82E1E
:101B8000C4CF0197481759079CF3CA01992493942D
:101B9000F2CF6C2DC2010E94590BF80EB6CFE110A6
:101BA00003C0C694FC0CB1CFF20180819181A28167
:101BB000B3819C01AD016DE0220F331F441F551FFF
:101BC0006A95D1F7282739274A275B27DA01C90107
:101BD00071E1B695A795979587957A95D1F72827BE
:101BE00039274A275B27CA01B901A5E0660F771F8D
:101BF000881F991FAA95D1F76227732784279527F5
:101C0000608371838283938323E030E040E050E07F
:101C10000E94B23761502D2D2F19330BC901860F49
:101C2000911D67FD9A95D12C97FF03C08C0D9D1DCA
:101C3000FBCF8C159D050CF4B0CF8C199D09F9CF05
:101C40009924939462CFCB01912C641775070CF003
:101C500096CF912C5ACF0895EF92FF920F931F9336
:101C6000CF93DF932115310551F1E9017A0121E08C
:101C7000AE0184EB9AE20E94AD05C817D90741F086
:101C800080E0DF91CF911F910F91FF90EF90089529
:101C90008701CE0DDF1D0C171D0789F08091D62915
:101CA0009091D729891B990B181619064CF784EBCC
:101CB0009AE20E941D05F80181938F01ECCF81E02B
:101CC000E0CF0F931F93CF93DF9391E02115310560
:101CD000B1F0E9018A0184EB9AE20E949E05AE010F
:101CE000B80184EB9AE20E943705C817D90731F48E
:101CF00084EB9AE20E94770591E0811190E0892FB0
:101D0000DF91CF911F910F91089584EB9AE20E9489
:101D10009E0584EB9AE20E94770591E0811190E0A4
:101D2000892F0895CF93DF93EC0184EB9AE20E9410
:101D30002D066A817B818C819D81611571058105EC
:101D4000910511F00E94740481E0DF91CF91089514
:101D50008F929F92AF92BF92CF92DF92EF92FF92BB
:101D60000F931F93CF93DF9300D0CDB7DEB76C01F5
:101D70005B014A0179012115310509F452C0DC01EA
:101D800016968C91811110C080E00F900F90DF911A
:101D9000CF911F910F91FF90EF90DF90CF90BF9068
:101DA000AF909F908F900895452B71F3C901860FD6
:101DB000971F8130994040F7F6010581B982AA82C8
:101DC00082819381DC01ED91FC910084F185E02D0D
:101DD00022E030E0AE014F5F5F4FD60114966C9168
:101DE0000995882391F210E0E016F10608F48701C6
:101DF000F60182819381DC01ED91FC910284F385EF
:101E0000E02D9801A401D60114966C9109958823C0
:101E100009F4BACFA00EB11E800E911EE01AF10A8D
:101E200059F681E0B2CF882321F0813118F080E1AA
:101E3000089581E008951F93CF93DF93EC01862FDF
:101E4000142F0E94130F8150682F606820E0412FEB
:101E5000CE01DF91CF911F910C94B00A0F931F9385
:101E6000CF93DF93EC018C01035F154FF801808164
:101E7000882359F03296408131976081CE01865D8A
:101E8000994F0E941B0FF80110828E01005F154FC1
:101E9000F8018081882359F0329640813197608122
:101EA000CE01865D994F0E941B0FF8011082C0542D
:101EB000D84F18821982DF91CF911F910F91089509
:101EC000AF92BF92CF92DF92EF92FF920F931F9348
:101ED000CF93DF937C016B01EC018B015C018CE300
:101EE000A80EB11C88818170F8018083898181836B
:101EF0008A81853608F084E6F80182838B810E940E
:101F00009C0BF80183838C81853608F084E685304C
:101F100008F485E0F80184838D81858326960A5F25
:101F20001F4FCA15DB05F1F6F70184AD0E94A40B23
:101F3000F60184AFF70185AD0E94130FF60185AF5E
:101F4000F70186ADF60186AFDF91CF911F910F911A
:101F5000FF90EF90DF90CF90BF90AF9008952F92B9
:101F60003F924F925F926F927F928F929F92AF9229
:101F7000BF92CF92DF92EF92FF920F931F93CF9376
:101F8000DF93CDB7DEB7AC97CDBFDEBF5C01D62EF9
:101F90004A0117012801FC01611110C1E357FF4FED
:101FA000278381E08683622E712CF40186E0289FCE
:101FB000E00DF11D11248081882309F40BC11281E9
:101FC000143608F4FEC0CC2009F41AC1F501EE570E
:101FD000FF4F80814CE0642F0E947E3786E0869D13
:101FE000D001879DB00D1124A80DB91D27E0929F47
:101FF000F0011124E55EF14411968C9166810E94F6
:102000007E379C01D501AF57BF4F8C91642F0E9442
:102010007E37892F90E0CC960480F581E02DE30F88
:10202000F11DF0808F0D911DD401DE965C9130E0A2
:10203000250F311D57FD3A95429FB001439F700D0A
:102040001124860F971FF12C97FD06C0F82E8038BB
:10205000910514F08FE7F82E86E0869D8001879D1C
:10206000100D1124080D191DF80183810E949C0B8D
:10207000E82E682F70E088E190E00E949E379B0177
:10208000D80114969C91953608F4C1C094E6929FAD
:10209000A001939F500D1124CA018D599F4F64E6F2
:1020A00070E00E948A37611101C061E0B1E0BE15A5
:1020B00020F4621710F06FEF620FC901330FAA0B03
:1020C000BB0B8DA39EA3AFA3B8A710E0862F90E013
:1020D000B0E0A0E089A79AA7ABA7BCA726E0269D01
:1020E000C001279D900D1124880E991E95E0890E40
:1020F000911C03E03501A5E86A0E711C1E1509F458
:1021000069C089A59AA5ABA5BCA5820D931DA41D88
:10211000B51DE2E0E983DA82CB821C821D822E8229
:102120003F8248865986F40120811A86DB86CC8658
:10213000FD862E872F86388A498A5A8AF1E0FB8BE2
:10214000DC8ACD8AFE8A1F8A888F998FAA8FBB8FDF
:102150000C8FDD8ECE8E1F8E18A289A39AA3ABA3FF
:10216000BCA3F30180819181A281B381BE016F5F25
:102170007F4F82159305A405B50509F04DC0C50133
:102180000E94B008BE01665F7F4FC5010E94B00883
:10219000BE016D5E7F4FC5010E947F08BE01645E77
:1021A0007F4FC5010E947F081F5F8DA19EA1AFA137
:1021B000B8A5280E391E4A1E5B1EA0CFEB56FF4F56
:1021C000EFCE112339F064E6C5010E943A08811769
:1021D00008F4F9CEAC96CDBFDEBFDF91CF911F9151
:1021E0000F91FF90EF90DF90CF90BF90AF909F90B6
:1021F0008F907F906F905F904F903F902F900895B9
:10220000D401DD968C910E94130FC82EDFCE95303D
:1022100008F03DCF95E03BCFC5010E947F08BE018D
:10222000665F7F4FC5010E947F08B2CF3F924F92F9
:102230005F926F927F928F929F92AF92BF92CF9256
:10224000DF92EF92FF920F931F93CF93DF93EC01F6
:102250002A013B018CAD0E94A40BD82EFE01E5584B
:10226000FF4F80810E94A40B382E8DADFE01E258F5
:10227000FF4F9081913009F077C09D2C930C0E9404
:10228000130FC82E5E018DE9A80EB11CF501208147
:102290002D1528F583017201AE0160E0CE010E9488
:1022A000AF0FFE01ED57FF4F8081813051F1F8F003
:1022B000823091F1833009F452C0DF91CF911F91A8
:1022C0000F91FF90EF90DF90CF90BF90AF909F90D5
:1022D0008F907F906F905F904F903F9008952D1951
:1022E00083017201AE01415C5F4F61E0D7CFF50120
:1022F000808190E00196692D70E00E948A3780838A
:10230000DCCFF50160819A94662319F099249A94A0
:10231000960EF5019082D1CFF1E0F91518F0F50194
:102320001082CBCFF5018081C256DF4F988199236F
:1023300079F0282F30E02F5F3F4F9216130609F0F7
:1023400020F418829A949A94E5CF8F5FF501D7CF45
:10235000811103C081E08883F9CF8150F7CF692DC7
:10236000CE010E943A08F2CF4E01FDE88F0E911C7B
:10237000C82E83017201F4012081AE0160E0CE011C
:102380000E94AF0FFE01E458FF4F5E0185E9A80EE1
:10239000B11CAE01415C5F4FC080F501208161E05E
:1023A000CE010E94AF0F4D2DB401CE010E94DC0979
:1023B000432DB501CE01DF91CF911F910F91FF9079
:1023C000EF90DF90CF90BF90AF909F908F907F90D5
:1023D0006F905F904F903F900C94DC09CF92DF920A
:1023E000EF92FF92C090A62ED090A72EE090A82E3C
:1023F000F090A92E8FEFC81AD80AE80AF80AC092FE
:10240000A62ED092A72EE092A82EF092A92E41E0FF
:10241000C701B6010E94350943E0C701B6010E9419
:10242000350942E0C701B6010E94350940E0C70105
:10243000B6010E943509C090A62ED090A72EE0903C
:10244000A82EF090A92EC701B60128E130E040E0A7
:1024500050E00E94B237672B682B692B51F4B7010B
:10246000A60181E29EE2FF90EF90DF90CF900C9466
:102470001611FF90EF90DF90CF9008950F931F9368
:10248000CF93DF93EC010E94BE098E010B571F4FC3
:10249000F8011082118212821382CE010E94AC0BCD
:1024A000FE01EC57FF4F8081813061F4F8014081DB
:1024B000518162817381CE01DF91CF911F910F9184
:1024C0000C941611DF91CF911F910F9108950F93E6
:1024D0001F93CF93DF93EC01FC01E152FD4F10827B
:1024E00011823296108211823296108211823296B7
:1024F000108231961082118212821382DC01A65959
:10250000BA4F3496AE17BF0719F010823A96FACF39
:102510001D921D921D921C9213978E010B571F4FF7
:10252000F8011082118212821382319781E0808338
:10253000CE010E94AC0BF801408151816281738110
:10254000CE01DF91CF911F910F910C9416112F9214
:102550003F924F925F926F927F928F929F92AF9233
:10256000BF92CF92DF92EF92FF920F931F93CF9380
:10257000DF93CDB7DEB72F97CDBFDEBF8C013C0117
:1025800023EA620E711C8D519D4F8A879B87F8014B
:10259000EE53F84FEC87FD871801FAEF2F1AF5EF8D
:1025A0003F0A28012CEF421A25EF520A8B5D984F03
:1025B0008E879F87780197EFE91A95EFF90A5801FE
:1025C000E9E1AE1AEDEFBE0A69E0F5018080918085
:1025D0008114910409F49DC0EA85FB8540815181F5
:1025E000649F9001659F300D1124260D371DF90160
:1025F000DE011196862F01900D928A95E1F7F9017F
:10260000908171818281D380C4804F5F5F4F4F730F
:102610005527EA85FB8540835183F1E08F1A9108A5
:10262000F50180829182F101408151814034510550
:1026300048F121E0EE85FF852083F701208131817B
:10264000428153812F3FFFEF3F074F075F0749F05C
:102650002F5F3F4F4F4F5F4FF701208331834283FE
:102660005383913009F441C098F1923009F445C088
:10267000933009F0AACFF801E054F84F711147C028
:1026800010829DCFF2012081318199837A838B83DF
:10269000DC82CD82629FD001639FB00D1124EC8556
:1026A000FD85AE0FBF1FE9E09E2EFE013196019021
:1026B0000D929A94E1F72F5F3F4F2F733327F2016A
:1026C000208331834F5F5F4FF10140835183C9CF36
:1026D0000E94130F8150682F60692C2D4D2DC80169
:1026E000865D994F0E94B00A6ACF4D2D682FC801B0
:1026F000865D994F0E941B0F62CFF801E054F84F9E
:1027000081E0711102C080835ACF818358CF11823A
:1027100056CF2F96CDBFDEBFDF91CF911F910F9186
:10272000FF90EF90DF90CF90BF90AF909F908F90F1
:102730007F906F905F904F903F902F9008950F93F0
:102740001F93CF93DF931F92CDB7DEB78C01049612
:102750000E94BE09F801E857FF4F1082F80113826A
:10276000828181110AC08CEF8983BE016F5F7F4F28
:10277000C801865D994F0E94750AC8010E94A71280
:102780000F90DF91CF911F910F9108959F92AF927B
:10279000BF92CF92DF92EF92FF920F931F93CF934E
:1027A000DF938C01942EFB01E158FF4F80819181D2
:1027B000009711F480EB94E0F80180839183780115
:1027C000F4E0EF0EF11C84E8FB01D70101900D92BB
:1027D0008A95E1F7580180E4A80EB11CF5018081CB
:1027E0000E94A40BF50180836801FFE7CF0ED11C86
:1027F000F60180810E94A40BF6018083E801CF5B83
:10280000DF4F88810E94130F8883EF9688810E9492
:10281000130F8883E701CA15DB0599F08A81853695
:1028200008F084E68A838B810E949C0B8B838C81C9
:10283000853608F084E6853008F485E08C8326969A
:10284000EACFE701EF96CC15DD0599F08A81853650
:1028500008F084E68A838B810E949C0B8B838C8199
:10286000853608F084E6853008F485E08C8326966A
:10287000EACF992019F0C7010E943E12C801DF91EA
:10288000CF911F910F91FF90EF90DF90CF90BF906D
:10289000AF909F900C94A712CF93DF93CDB7DEB784
:1028A000C458D109CDBFDEBF84E8EEEEFAEBDE01FD
:1028B000119601900D928A95E1F788E08DAFED9623
:1028C0008FAFED9782E0EE968FAFEE9741E0BE01BD
:1028D0006F5F7F4F8DE19EE20E94C613CC57DF4FA2
:1028E000CDBFDEBFDF91CF910895CF93DF93C1EDD0
:1028F000DCE2482F63ED7CE2888199810E94C61357
:10290000E881F98184E83496A3EDBCE201900D9250
:102910008A95E1F7DF91CF9108958F929F92AF92C0
:10292000BF92CF92DF92EF92FF920F931F93CF93BC
:10293000DF93CDB7DEB76197CDBFDEBF4C016B0132
:10294000CE0101965C0181E1D5011D928A95E9F7DE
:10295000F12CE12C8091C32A90E086010E191F0909
:102960008017910708F48C011982A801B4016E0D3B
:102970007F1DCE0102960E9467398091C02A9091F6
:10298000C12A98012F5F3F4FDC01ED91FC91068039
:10299000F781E02DA5016091C22A0995882339F0BD
:1029A0009091C32AE90EF11CEC14FD0498F2619693
:1029B000CDBFDEBFDF91CF911F910F91FF90EF90C0
:1029C000DF90CF90BF90AF909F908F9008956F92BF
:1029D0007F928F929F92AF92BF92CF92DF92EF92AF
:1029E000FF920F931F93CF93DF93CDB7DEB764971A
:1029F000CDBFDEBF5B011A8A1B8A1C8A90E19C8BCB
:102A000080558A8B63E070E0CE0142960E948D145F
:102A1000E82E882309F444C0F12C80E8882E912CFC
:102A200091E1792ECE0101966C0120E4622EF7FC33
:102A300038C02F2D30E0B501620F731F611571058D
:102A400079F18091C32A90E08401021B130B801757
:102A500091070CF48C010115110511F1D601E72D38
:102A60001D92EA95E9F76982A801CE0102960E94BB
:102A700067398091C02A9091C12A98012F5F3F4FFA
:102A8000DC01ED91FC910680F781E02DA6016091BB
:102A9000C22A0995882321F08091C32AF80EC7CF56
:102AA000E12C8E2D6496CDBFDEBFDF91CF911F91BB
:102AB0000F91FF90EF90DF90CF90BF90AF909F90DD
:102AC0008F907F906F9008955F926F927F928F9218
:102AD0009F92AF92BF92CF92DF92EF92FF920F93AD
:102AE0001F93CF93DF93CDB7DEB76A97CDBFDEBF1D
:102AF0004C016B015A0179012115310509F459C0C6
:102B0000DC0116968C91811114C080E06A96CDBFCD
:102B1000DEBFDF91CF911F910F91FF90EF90DF907B
:102B2000CF90BF90AF909F908F907F906F905F906D
:102B30000895452B51F3C901860F971F81309940A5
:102B400020F788E1582E3E01E3E06E0E711CD4019F
:102B500015960C9110E0E016F10608F48701F301D8
:102B6000252D11922A95E9F7D982CA82A801B501CB
:102B7000C3010E946739D40112968D919C91DC01AA
:102B8000ED91FC910084F185E02D98012E5F3F4F7F
:102B9000AE014F5F5F4FD40114966C910995882365
:102BA00009F4B3CFC00ED11EA00EB11EE01AF10A77
:102BB00071F681E0ABCF1092EA2D1092EC2D1092BD
:102BC000ED2D8091D12C9091D22C0E942E0F6BEE86
:102BD0007EEB8EEE9DE20C948039CF93DF93EC0177
:102BE00064EF7EEB82E69DE20E948039DF93CF9313
:102BF00089E09FEB9F938F931F9280E28F9382E8EF
:102C00009DE29F938F930E94963981E08093612D7E
:102C10008CED95E08093A22D9093A32D8DB79EB758
:102C200008968DBF9EBFDF91CF9108959F938F939C
:102C300089E09FEB9F938F931F9280E28F9389ECA3
:102C40009DE29F938F930E9496398DB79EB7089609
:102C50008DBF9EBF08950F931F93CF93DF93EC0119
:102C6000162F072F6EEF7EEB82E69DE20E948039E1
:102C70000F931F93DF93CF9385E09FEB9F938F93E9
:102C80001F9280E28F9382E89DE29F938F930E9430
:102C9000963981E08093612D8CED95E08093A22D93
:102CA0009093A32D8DB79EB70A968DBF9EBFDF91DF
:102CB000CF911F910F910895FF920F931F93CF9380
:102CC000DF93D42F152F022FF32E70E06F5F7F4F0D
:102CD0008823B9F184E19FEB7F936F939F938F9348
:102CE0008CE19FEB9F938F931F92C0E2CF9382E67C
:102CF0009DE29F938F930E949639FF920F931F93AB
:102D0000DF9385E09FEB9F938F931F92CF9382E891
:102D10009DE29F938F930E94963981E08093612D6D
:102D20008CED95E08093A22D9093A32D8DB79EB747
:102D300044968DBF9EBFDF91CF911F910F91FF9061
:102D400008958CE09FEBC8CF0F931F93CF93DF9331
:102D5000CDB7DEB7A097CDBFDEBF8E010F5F1F4F8F
:102D6000633061F138F4662369F06230C9F16CE6D2
:102D70007FEB2FC0653089F150F16630C1F768E50F
:102D80007FEB27C09F938F9389E29FEB9F938F9355
:102D90001F9280E28F931F930F930E949639CDBFAD
:102DA000DEBFB80185E79FEB0E942B16A096CDBF32
:102DB000DEBFDF91CF911F910F91089580915F2D1C
:102DC00090E001969F938F938FE29FEBDFCF6DE3AF
:102DD0007FEBC8010E948039E4CF6BE47FEBF9CF31
:102DE00062E67FEBF6CF0F931F93B82F862FF90182
:102DF0005081ACE06A2F0E947E3787E0989FF001F7
:102E00001124E55EF1446681852F0E947E37382FBC
:102E10000480F581E02DE90FF11D20818B2F6A2FB1
:102E20000E947E37892F90E0CC96820F911D232F30
:102E300030E0240F311D47FD3A95A29FB001A39FBA
:102E4000700D1124860F971F97FD2CC080389105B7
:102E50005CF56CE00E947E378150282F082E000C14
:102E6000330B3F938F93E92FF0E0EE0FFF1FED5FE1
:102E7000F14481818F9380818F931F925F938CE7C0
:102E80009FEB9F938F931F9280E28F931F930F93DB
:102E90000E949639EDB7FEB73C96EDBFFEBF1F917D
:102EA0000F91089580E0D5CF8FE7D3CF9F92AF9257
:102EB000BF92CF92DF92EF92FF920F931F93CF9327
:102EC000DF93F090EB2D01E00F1508F000E02F2DBF
:102ED0002170E22E8091512D813009F0A8C0D09050
:102EE000102D8F1508F4ABC040E3C42E8091D12C77
:102EF0009091D22C0E942E0FE11068C08091E92D94
:102F0000823009F453C0C091D12CD091D22C10E062
:102F10008D2D0E94130F982E5801AA0CBB1CC501C1
:102F2000800F911F8C0F9D1FFC01E35FF54F2081E7
:102F30002223B9F031966081815F954FFC01408179
:102F4000961202C04C1569F0CE01865D994F0E9421
:102F50001B0FF501E00FF11FEC0FFD1FE35FF54FB5
:102F60001082F501E00FF11FEC0FFD1FE35FF54F3D
:102F7000808181110DC0892D0E94130F8150682F0F
:102F8000606924E64C2DCE01865D994F0E94B00AFF
:102F90000A0D1B1DC00FD11FFE01E35FF54F81E03D
:102FA000808331969082C15FD54FC8828091E92D90
:102FB000813009F449C0E091D12CF091D22CE05439
:102FC000F84F21E081E02F15E8F180838091E92D11
:102FD0008230D1F588EF91ECE11002C08FEE91ECD8
:102FE000E1E021E4EF1508F422E49F938F931F9210
:102FF0002F9388E89FEB9F938F931F9280E28F938C
:103000008EEE9DE29F938F930E9496398DB79EB767
:103010000A968DBF9EBFDF91CF911F910F91FF90B8
:10302000EF90DF90CF90BF90AF909F90089591E088
:103030009F1518F0D090102D57CFD0904F2D3CE316
:10304000C32E54CF8183C2CF8C2D6CE00E947E377B
:103050008150E92FF0E0EE0FFF1FED5FF14460813A
:1030600071812D2D30E048EF51ECE11002C04FEEA0
:1030700051EC91E09F15F0F091E41F928F937F93B4
:103080006F933F932F935F934F931F929F9383E987
:103090009FEB9F938F931F9280E28F938EEE9DE222
:1030A0009F938F930E949639EDB7FEB77096EDBF50
:1030B000FEBFB1CF92E4E1CF8091572D853019F05A
:1030C00085E08093572D1092612D1092A22D1092C1
:1030D000A32D81E08093EA2D1092EB2D1092EC2D20
:1030E0001092ED2D0C945617AF92BF92CF92DF92B3
:1030F000EF92FF920F931F93CF93DF93CDB7DEB77D
:103100006897CDBFDEBF2FB7F89460910D2A7091FC
:103110000E2A80910F2A9091102A2FBF28E730E0C5
:1031200040E050E00E94B23769017A01C094D09427
:10313000E094F0948AE08E010F5F1F4FD801E82FD2
:103140001D92EA95E9F7FE013B96DF011D928A95F3
:10315000E9F71D8A1E8A1F8A188E88E1F801ACE003
:10316000B8E201900D928A95E1F78091572D843055
:1031700009F08EC0ECE0F8E286E198E221E04C2D07
:103180004170219341878E179F07D9F78091A62D13
:10319000809320288091A72D8093212881E0909111
:1031A0001F2E913009F080E08093222881E09091D9
:1031B000A52E913009F080E08093232819821A828D
:1031C0001B822CE0C22E28E2D22EF12CD6014D918A
:1031D0006D016F2DC8010E941F0A6AE06F0DF60194
:1031E0004185C8010E941F0AF394FAE0FF12EECF56
:1031F00080E2C82E88E2D82E94E1F92ED6014D91B6
:103200006D016F2DC8010E941F0AF394B8E1FB12F3
:10321000F5CF70E060E08AE00E94940178015E01E1
:10322000E4E0AE0EB11CD701CD907D0107E010E0C7
:10323000D12CB601002E02C0759567950A94E2F76D
:10324000617077278BE00E94940161E070E08DE06F
:103250000E94940170E060E08DE00E9494010150B2
:10326000110938F7AE14BF04F1F661E070E08AE0AE
:103270000E9494016896CDBFDEBFDF91CF911F9170
:103280000F91FF90EF90DF90CF90BF90AF90089597
:1032900069017A01B1E0CB22DD24EE24FF24E1E2D2
:1032A000FEE2ACE0B8E28530B1F59091EB2D692FEC
:1032B000609561707091EA2D772341F0872F90FF20
:1032C00006C081E0CD28CE28CF2809F080E0382F35
:1032D000923008F030E0ECE0F8E246E158E2319359
:1032E000282F923008F420E021874E175F07B9F7A6
:1032F000709320288091E92D91E0823008F090E0D1
:10330000909321288D7F91E009F090E090932228FE
:103310006093232853CF90819D9397AD19969C93EA
:10332000199736969EE2ED35F907A9F7E091592DE8
:10333000F0E0E45FF74D91E09083E0915A2DF0E0EA
:10334000E45FF74D92876091B42E662359F0C11463
:10335000D104E104F10431F4E091B52EF0E0E45F32
:10336000F74D90839091BC2E992359F0CD28CE280B
:10337000CF2839F4E091BD2EF0E0E45FF74D91E005
:10338000928791E02091A52E213009F090E0909352
:10339000202891E020911F2E213009F090E0909399
:1033A000212890915E2D9093222891E0833009F09E
:1033B00090E09093232802CFAF92BF92CF92DF92FA
:1033C000EF92FF920F931F93CF93DF936C017B01DA
:1033D00080E4FB0111928A95E9F7E6018B01560121
:1033E000FCE3AF0EB11C8881F80180838981818361
:1033F0008A81853608F084E6F80182838B810E94F9
:103400009C0BF80183838C81853608F084E6853037
:1034100008F485E0F80184838D81858326960A5F10
:103420001F4FCA15DB05F9F6F60184AD0E94A40B07
:10343000F70184AFF60185AD0E94130FF70185AF48
:10344000F60186ADF70186AFDF91CF911F910F9105
:10345000FF90EF90DF90CF90BF90AF9008957F9254
:103460008F929F92AF92BF92CF92DF92EF92FF9294
:103470000F931F93CF93DF93CDB7DEB7CE59D1090A
:10348000CDBFDEBF4C01762E8A016E018FE8C80EDB
:10349000D11C80E1D6011D928A95E9F7FE01319693
:1034A0005F018EE8DF011D928A95E9F7E62EF12C87
:1034B000BFEFEB1AFB0AFE2CEE24F4018081918110
:1034C000DC01ED91FC910480F581E02D20E130E0FC
:1034D000A601B7010995811113C082E0C256DF4FE2
:1034E000CDBFDEBFDF91CF911F910F91FF90EF9085
:1034F000DF90CF90BF90AF909F908F907F90089576
:1035000044E050E064E77DEBC6010E945A39892B04
:1035100009F073C0F6018481813009F070C08581A3
:1035200078126FC0868197818E38910509F069C045
:10353000D4018D919C91B701605F7F4FDC01ED91CB
:10354000FC910480F581E02D2EE830E0A50109957D
:10355000882319F2C5010E94B900F6012085318542
:103560008217930709F04FC0B801C5010E94600F90
:10357000B801615C7F4FCE018F5B9F4F0E94600F4F
:10358000F801E258FF4F81E0CF57DF4F9881C158D3
:10359000D040913009F080E08083CE57DF4F8881A2
:1035A000C258D040F801ED57FF4F823021F08330F0
:1035B00011F0813001F58083CD57DF4F88819981EB
:1035C000C358D040009711F480EB94E0F801E15823
:1035D000FF4F808391833296CB57DF4F8881C55848
:1035E000D04080833196CA57DF4F8881C658D0407B
:1035F000808380E073CF1082DFCF83E06FCF84E0E1
:103600006DCF85E06BCF86E069CFCF93DF93EB0181
:10361000DC018D919C91DC01ED91FC910480F581A0
:10362000E02D20E130E0AB0170E060E009958823F7
:1036300081F044E050E06FEF7DEBCE010E945A39FB
:10364000892B49F48C81813041F480E0DF91CF9166
:10365000089582E0FBCF83E0F9CF84E0F7CFCF93EA
:10366000DF93CDB7DEB76097CDBFDEBF8091A42DCD
:103670009091A52D0097A1F0BE016F5F7F4F20E1D3
:10368000FB0111922A95E9F70E94051B811108C0E0
:103690008E81883018F08F81883010F480935F2DF0
:1036A0006096CDBFDEBFDF91CF9108950F931F933A
:1036B000CF93DF93CDB7DEB7C154D109CDBFDEBF05
:1036C000E091D12CF091D22C84E83496A3EDBCE2A9
:1036D00001900D928A95E1F781E08093572D109229
:1036E000582D1092592D10925A2D10925B2D109238
:1036F0005C2D10925D2D10925E2D10925F2D109218
:10370000602D8E010F5F1F4F81E4F80111928A95A1
:10371000E9F7C8010E94170881E4F801A1E6BDE2BB
:1037200001900D928A95E1F71092A22D1092A32D8F
:1037300065EA7FEB89EC9DE20E9480391092E92DC9
:103740001092EA2D1092EB2D1092EC2D1092ED2D8F
:103750006BEA7FEB8EEE9DE20E9480390E942F1B68
:10376000CF5BDF4FCDBFDEBFDF91CF911F910F91B8
:103770000895FF920F931F93CF93DF93CDB7DEB7DA
:10378000A097CDBFDEBF2091A42D3091A52D21158E
:103790003105D1F1F82E8E010F5E1F4F80E1D80167
:1037A0001D928A95E9F7B801C9010E94051B88237B
:1037B000F9F0FE0137968AE0DF011D928A95E9F75C
:1037C0008091FFBD909100BEA09101BEB09102BE5C
:1037D00089839A83AB83BC8381E08D838FEF8E8353
:1037E0008F8380E13697D80101900D928A95E1F799
:1037F00080915F2DFF2089F08F8BB8018091A42DDF
:103800009091A52D0E942508A096CDBFDEBFDF9127
:10381000CF911F910F91FF9008958E8BEECF0C9456
:10382000BE380C94BE380C94BE38CF93DF93EC01B5
:1038300045E150E00E9487391D8ADF91CF910895BC
:10384000EF92FF920F931F93CF93DF93009741F175
:10385000FB0101900020E9F731978F01061B170B40
:103860000531110540F0DF91CF911F910F91FF902D
:10387000EF900C94151C7B01EC0145E150E060E2F7
:1038800070E00E94703985E190E0801B910B969565
:103890008795A801B7018C0F9D1F0E9467391D8A6B
:1038A000DF91CF911F910F91FF90EF900895CF93EB
:1038B000DF93CDB7DEB79E01275F3F4F4F8158851D
:1038C00066E170E08D819E810E94C639DF91CF91C3
:1038D0000895CF93DF93EC0180915C2D813009F442
:1038E00042C08230E9F580EB9FEB20915B2D2130C7
:1038F000E9F12FEB3FEB9F938F933F932F938AEC4C
:103900009FEB9F938F93DF93CF930E94571C8091DF
:10391000572D2DB73EB7285F3F4F2DBF3EBF90912B
:103920005E2D8330D1F520915D2D283049F58091B1
:103930005F2D9923F1F090E001969F938F9387ED8F
:103940009FEB9F938F93DF93CF930E94571C0F9011
:103950000F900F900F900F900F90DF91CF910895DF
:1039600084EB9FEBC2CF8EE89FEBBFCF29EB3FEB01
:10397000C2CF90E001969F938F9386EE9FEBE1CFAD
:10398000293059F48091602D992391F090E00196AF
:103990009F938F9389EF9FEBD4CF992381F08091F0
:1039A0005F2D90E001969F938F9388E190ECC9CFB3
:1039B00090E001969F938F9387E090ECC2CF833085
:1039C00099F4E0915D2DE15084EC9FEBE93038F4FF
:1039D000F0E0EE0FFF1FE159F144808191819F9348
:1039E0008F938AE290ECADCF80919F2E813009F0C9
:1039F000B4CF8091A32E2CE0622F0E947E3737E057
:103A0000939FF0011124E55EF14483818F938281BD
:103A10008F938091A22E0E947E37E92FF0E0EE0F67
:103A2000FF1FED5FF14481818F9380818F9384E349
:103A300090EC9F938F93DF93CF930E94571C8DB789
:103A40009EB708968DBF9EBF88CFCF93FC01209173
:103A5000A52E80911F2EC0919F2E813001F521301F
:103A6000D9F423E231EC84E490ECC13011F088E425
:103A700090EC3F932F939F938F938DE490EC9F93C3
:103A80008F93FF93EF930E94571C8DB79EB70896B4
:103A90008DBF9EBFCF9108952FE330ECE4CF80918E
:103AA000A02E9091A12E6AE070E00E948A3743E236
:103AB00051EC213011F04FE350EC24E430ECC130F4
:103AC00011F028E430EC9F938F937F936F935F9373
:103AD0004F933F932F938CE590EC9F938F93FF939D
:103AE000EF930E94571C8DB79EB70C968DBF9EBF5B
:103AF000D1CF3F924F925F926F927F928F929F921F
:103B0000AF92BF92CF92DF92EF92FF920F931F93EB
:103B1000CF93DF93CDB7DEB7C058D109CDBFDEBF9D
:103B200010927C28109292281092A8281092BE28F9
:103B30008091572D811173C065EB70EC82E998E29A
:103B40000E94201C6DEB70EC88EA98E20E94201C19
:103B500064EC7CEB8EEB98E20E94201C48E550E080
:103B600064E278E28CE798E20E945A39892B09F4E2
:103B700047C38091C42A882309F439C395ECE92E00
:103B80009AE2F92E0CE718E2512C20E8422EFE01B1
:103B900031966F0180911D2B98012A5E3F4F3901AC
:103BA000882339F0B801C7010E947739892B09F4BD
:103BB00012C3F601242D11922A95E9F75601480106
:103BC000F40131904F01332009F4F7C26E167F06DD
:103BD00009F4F3C2832D90E00E944B39892B31F018
:103BE000832D330C990B0E945239382EE0EEE30DF1
:103BF000EB3308F0DFC2F0E0EE0FFF1FE153F344B8
:103C00000190F081E02DCF010596D50121912D93F2
:103C1000E817F907D9F7F6E0AF0EB11CD1CF843021
:103C200009F0F5C069EC70EC8CE798E20E94151C75
:103C30008091A72D2CE23FEB811102C02CE630ECE5
:103C40008091A62D882309F4B1C08CE29FEB3F93AD
:103C50002F939F938F9384ED90EC9F938F9382E9A2
:103C600098E29F938F930E94571C69EC7DE288EA4B
:103C700098E20E94151CCDBFDEBF809106314091B5
:103C80008B3350918C3360918D3370918E338111D1
:103C900012C0411551056105710569F480914D35DA
:103CA000811109C08091D835811105C080912538D6
:103CB000882309F481C08091073190910831A09147
:103CC0000931B0910A31840F951FA61FB71F8417C1
:103CD0009507A607B70718F48FEF9FEFDC018983DC
:103CE0009A83AB83BC8380914E3590914F35A091E0
:103CF0005035B09151358D839E83AF83B8878091C5
:103D0000D9359091DA35A091DB35B091DC358987D2
:103D10009A87AB87BC878091263890912738A091ED
:103D20002838B09129388D879E87AF87B88BFE01E0
:103D300031969E012F5E3F4F40E050E0BA018191E5
:103D40009191A191B191840F951FA61FB71F841760
:103D50009507A607B70718F48FEF9FEFDC01AC01BA
:103D6000BD012E173F0759F720913238222309F160
:103D7000E0913038E430E8F4F0E0EE0FFF1FE45457
:103D8000F34420813181BF93AF939F938F933F93EF
:103D90002F9384EE90EC9F938F938EEB98E29F93FA
:103DA0008F930E94571CCDBFDEBFD8CE8CE690EC1F
:103DB0004ECF21E730ECE7CF80911F2E46E750EC45
:103DC000813011F04AE750EC8091A52E23E231ECCE
:103DD000813011F02FE330EC809132388823A1F04C
:103DE000E0913038E43080F4F0E0EE0FFF1FE4544F
:103DF000F344808191815F934F933F932F939F93DF
:103E00008F9382EF90ECC7CF81E790ECF4CF8530B1
:103E100009F052C08091EA2D2EE730EC811102C0EA
:103E200022E830EC8091E92D813029F08230F1F1E7
:103E30008CE890EC02C087E890EC3F932F939F931F
:103E40008F938EEF90EC9F938F938CE798E29F93E4
:103E50008F930E94571C6EEE7DE282E998E20E94E9
:103E6000151CCDBFDEBF8091DE3521E930EC81111C
:103E700002C024E930EC8091DD358823D1F081E95E
:103E800090EC3F932F939F938F9387E091EC9F93B8
:103E90008F9388EA98E29F938F930E94571C63E167
:103EA00071EC8EEB98E20E94151C7DCF8EE89FEBA3
:103EB000C4CF84E990ECE5CF8091612D8823A9F0EF
:103EC00062E67DE28CE798E20E94151C62E87DE2E2
:103ED00082E998E20E94151C88EA98E20E94251D5A
:103EE0008EEB98E20E94691C39CE8CE798E20E9422
:103EF000251D8091572D833009F0F2C0E0915D2D92
:103F0000E15084EC9FEBE93038F4F0E0EE0FFF1F56
:103F1000E159F144808191819F938F938AE290ECE3
:103F20009F938F9382E998E29F938F930E94571CEF
:103F30008091582D0F900F900F900F900F900F9031
:103F4000A1E2BEE2882311F0A0E6BEE2E0915D2D81
:103F5000EA3030F6F0E0E155F04E0C94F337B91F3B
:103F6000D21FEE1FFC1F0E202020332043205E2096
:103F700067208091A02E9091A12E6AE070E00E94AF
:103F80008A379F938F937F936F9388E291EC9F93EF
:103F90008F9388EA98E29F938F930E94571CCDBF1E
:103FA000DEBF9ECF80911F2E8130A9F487E990EC6F
:103FB0009F938F9388E391EC9F938F9388EA98E285
:103FC0009F938F930E94571C0F900F900F900F900C
:103FD0000F900F9085CF80EA90ECEACF80919F2ED2
:103FE000813039F489EA90EC9F938F9381E491ECCE
:103FF000E3CF88E490ECF8CF8091A22E6CE00E9491
:104000007E37E92FF0E0EE0FFF1FED5FF144818175
:104010008F9380818F9389E491ECCECF8091A32EF2
:104020006CE00E947E3727E0929FF0011124E55E4C
:10403000F14483818F9382818F9381E591ECBCCF92
:10404000E091A42EE15081EB90ECE33038F4F0E005
:10405000EE0FFF1FEA54F344808191819F938F9369
:104060008AE591ECA9CFDC962C91811109C082E1FF
:104070009FEB1F922F939F938F9382E691EC87CFB4
:104080008AE19FEBF6CF90919F2E913039F4809189
:104090005E2E1F928F938CE691EC8ECFDD962C9145
:1040A000811109C082E19FEB1F922F939F938F9301
:1040B0008DE791EC6CCF8AE19FEBF6CF80915F2D7D
:1040C00090E001969F938F938BE891EC75CF809150
:1040D000602D90E001969F938F938AE991EC6CCFCD
:1040E0008091582D2EE3811120E29091592D9F5FF0
:1040F0008091B42E882309F456C08091B52E8F5F2D
:1041000030915E2E1F923F9330915D2E1F923F9310
:104110001F928F931F929F931F922F9382E19FEB89
:104120009F938F9386EA91EC9F938F9382E998E215
:104130009F938F930E94571CCDBFDEBF8091582D57
:104140002EE3813009F020E290915A2D9F5F8091FB
:10415000BC2E882351F18091BD2E8F5F30919F2E10
:10416000313029F530915E2E1F923F9330919C2E75
:104170001F923F931F928F931F929F931F922F9393
:104180008AE19FEB9F938F9386EA91EC9F938F93A5
:1041900088EA98E29F938F930E94571C8EEB98E2D7
:1041A0000E94691C00CE80E0ABCF80E0D7CF309179
:1041B0009D2EDACFE5E4FDEB26CDB601852D0E94DC
:1041C000E7148823A1F045E150E0B801C7010E943F
:1041D0008739F701158AF6E1EF0EF11C830153943C
:1041E000539428E05212D6CC81E080931D2B88E5B1
:1041F000ECE7F8E2A4E2B8E201900D928A95E1F7CB
:10420000C058DF4FCDBFDEBFDF91CF911F910F911F
:10421000FF90EF90DF90CF90BF90AF909F908F90E6
:104220007F906F905F904F903F9008951F920F92F4
:104230000FB60F9211242F933F934F935F936F9379
:104240007F938F939F93AF93BF9340910D2A50918B
:104250000E2A60910F2A7091102A80910B2A90915A
:104260000C2A2091092A30910A2A420F531F611DFE
:10427000711D2091072A3091082A820F931F883ED2
:1042800023E0920730F0885E93404F5F5F4F6F4F9F
:104290007F4F80930B2A90930C2A40930D2A5093C2
:1042A0000E2A60930F2A7093102A8091152A9091FC
:1042B000162AA091172AB091182A0196A11DB11DA6
:1042C0008093152A9093162AA093172AB093182A40
:1042D00081E08093B60ABF91AF919F918F917F91BA
:1042E0006F915F914F913F912F910F900FBE0F9063
:1042F0001F9018951F920F920FB60F9211242F93B3
:104300003F934F935F936F937F938F939F93AF935D
:10431000BF93EF93FF9389E19AE20E942A03FF91F2
:10432000EF91BF91AF919F918F917F916F915F912D
:104330004F913F912F910F900FBE0F901F901895A6
:104340001F920F920FB60F9211242F933F934F930A
:104350005F936F937F938F939F93AF93BF93EF93ED
:10436000FF93E091252AF091262A818181FD2FC0BB
:10437000608180912B2A8F5F8F7390912C2A8917EF
:1043800041F0E0912B2AF0E0E75EF54D618F8093DC
:104390002B2A8091B22A9091B32A009739F0DC0140
:1043A000ED91FC910190F081E02D0995FF91EF9145
:1043B000BF91AF919F918F917F916F915F914F913D
:1043C0003F912F910F900FBE0F901F9018958081F5
:1043D000EDCF1F920F920FB60F9211242F933F93A0
:1043E0004F935F936F937F938F939F93AF93BF93FD
:1043F000CF93EF93FF93C091AB08C2FF0AC0109216
:10440000EE291092ED291092EC2984E00E944104DB
:1044100014C0C6FF2FC08091EB29813051F48091E8
:10442000EE29E091E929F091EA2990E009951092AE
:10443000EB29C0FF14C00E945104FF91EF91CF916E
:10444000BF91AF919F918F917F916F915F914F91AC
:104450003F912F910F900FBE0F901F90189580E401
:104460008093AB0881E00E9441048091AB0885FFF6
:10447000E4CFE1CFC7FF5CC0C3FF08C01092EE29B4
:104480001092ED291092EC2983E0C0CF8091A90809
:1044900080668093A9088091AB0881FF2CC0809131
:1044A000ED29882349F08091AB0884FF05C082E0A4
:1044B0008093AA0881E0AACF9091ED298091EC2900
:1044C0009817A8F4E091ED298091E4299091E529CD
:1044D000E80FF92FF11D80818093AD088091ED29BF
:1044E0008F5F8093ED2983E08093AA08A6CF82E0B6
:1044F0008093AA088BCF9091EE298091E829981794
:1045000090F48091AD08E091EE292091E629309158
:10451000E729E20FF32FF11D80838091EE298F5F51
:104520008093EE29E0CF86E08093AA0882E06ECFE8
:1045300085E06CCF1F920F920FB60F9211242F932C
:104540003F938F939F93EF93FF938091A508982FAC
:104550009C70E1F08091A50894E082FF93E0909335
:10456000F9298093A50881E090E08093EF2990934A
:10457000F0291092FA29FF91EF919F918F913F912D
:104580002F910F900FBE0F901F90189586FF4EC071
:104590002091F6299091F5298091A50884FF15C0F6
:1045A0008091F229882379F083E08093A40885E044
:1045B0008093F9291092FA2981E090E08093EF2905
:1045C0009093F029D8CF81E0F0CF8091F429821721
:1045D00090F4E091F4298091F7299091F829E80F5F
:1045E000F92FF11D80818093A8088091F4298F5FB5
:1045F0008093F429C0CF8091F329891760F484E077
:1046000090E08093EF299093F0298091F1298160C7
:104610008093A708B0CF8091F229882329F083E006
:104620008093A40881E0C4CF81E0FACF87FF40C027
:104630009091F3298091F5299817D8F48091A808D2
:10464000E091F3292091E2293091E329E20FF32F41
:10465000F11D80838091F3298F5F8093F3299091DE
:10466000F5298091F3298917D8F482E08093A40872
:1046700082CF8091F229882389F087E08093A40873
:1046800082E08093F9291092FA2981E090E08093EA
:10469000EF299093F0291092F5296DCF85E0EECFA8
:1046A0008091F229882311F087E0BACF85E0B8CF56
:1046B00086E07ECFCF93DF93EC018CE3ECE4F9EB63
:1046C000DE0101900D928A95E1F78AE08CAF81E0DE
:1046D0008DAF1EAEDF91CF9108951F93CF93DF93DF
:1046E000EC011FE3FC01812F11928A95E9F7CE01BD
:1046F0000E945A23CE01CF96FC0111921A95E9F738
:104700000E945A23FE01E258FF4F1082319680EB3F
:1047100094E0808391833296108231961082CD5737
:10472000DF4F1882DF91CF911F910895CF93DF93D0
:10473000FC0112828AE0808384E08183DF0113968A
:1047400089E0ED0119928A95E9F71382148287E0D6
:104750008583168294E6978381E080872BE4218706
:1047600092871386148694E1958786871786DF9152
:10477000CF9108953F924F925F926F927F928F9266
:104780009F92AF92BF92CF92DF92EF92FF920F93E0
:104790001F93CF93DF93CDB7DEB7C458D109CDBFF8
:1047A000DEBF10921F2E1092202E80EB94E080939B
:1047B0001D2E90931E2EE1E2FEE284E8DF011D92A1
:1047C0008A95E9F7CF010E946D231092A52E1092D1
:1047D000A62E1092A72E1092A82E1092A92E81E03C
:1047E00090E0A0EFB1ED8093AA2E9093AB2EA09312
:1047F000AC2EB093AD2E98E0EEEAFEE2DF01092F79
:104800001D920A95E9F781E08093AF2E8093B22E36
:10481000E6EBFEE2DF011D929A95E9F78093B72E51
:104820008093BA2E1092BE2E8093BF2EE0ECFEE253
:104830004BE452E0DF018A011D9201501040E1F784
:1048400020E432E0DF0189011D9201501040E1F7C0
:104850008093C22E8093CB2E8093D42E8093DD2E16
:104860008093E62E8093EF2E8093F82E8093012F75
:1048700080930A2F8093132F80931C2F8093252FD2
:1048800080932E2F8093372F8093402F8093492F32
:104890008093522F80935B2F8093642F80936D2F92
:1048A0008093762F80937F2F8093882F8093912FF2
:1048B00080939A2F8093A32F8093AC2F8093B52F52
:1048C0008093BE2F8093C72F8093D02F8093D92FB2
:1048D0008093E22F8093EB2F8093F42F8093FD2F12
:1048E0008093063080930F3080931830809321306E
:1048F00080932A308093333080933C3080934530CE
:1049000080934E308093573080936030809369302D
:104910008093723080937B308093843080938D308D
:104920008093963080939F308093A8308093B130ED
:104930008093BA308093C3308093CC308093D5304D
:104940008093DE308093E7308093F0308093F930AD
:10495000EBE0F1E360E872E0DF018B011D920150B2
:104960001040E1F780930E3180931831809322310B
:1049700080932C31809336318093403180934A313B
:104980008093543180935E3180936831809372318B
:1049900080937C31809386318093903180939A31DB
:1049A0008093A4318093AE318093B8318093C2312B
:1049B0008093CC318093D6318093E0318093EA317B
:1049C0008093F4318093FE318093083280931232C9
:1049D00080931C32809326328093303280933A3217
:1049E0008093443280934E32809358328093623267
:1049F00080936C32809376328093803280938A32B7
:104A00008093943280939E328093A8328093B23206
:104A10008093BC328093C6328093D0328093DA3256
:104A20008093E4328093EE328093F83280930233A5
:104A300080930C33809316338093203380932A33F2
:104A40008093343380933E33809348338093523342
:104A500080935C33809366338093703380937A3392
:104A60008093843310928B3310928C3310928D3359
:104A700010928E339EEFC92E9AECD92E9EE7E92E26
:104A800091EAF92EC0928F33D0929033E092913315
:104A9000F092923394EBE8E8F9EBA3E9B3E30190E9
:104AA0000D929A95E1F7E7E4F4E36BE071E0DF0142
:104AB0008B011D9201501040E1F760E071E0DF01D1
:104AC0008B011D9201501040E1F7E2EDF5E39BE010
:104AD000DF011D929A95E9F790E8ECE3FAEBA2E585
:104AE000B5E301900D929A95E1F71092DD351092A1
:104AF000DE35EFEDF5E3DF018A011D920150104034
:104B0000E1F7DF0189011D9201501040E1F7809328
:104B1000E1358093EA358093F3358093FC358093BB
:104B2000053680930E368093173680932036809317
:104B300029368093323680933B3680934436809377
:104B40004D368093563680935F36809368368093D7
:104B5000713680937A368093833680938C36809337
:104B6000953680939E368093A7368093B036809397
:104B7000B9368093C2368093CB368093D4368093F7
:104B8000DD368093E6368093EF368093F836809357
:104B9000013780930A378093133780931C378093B3
:104BA000253780932E378093373780934037809313
:104BB00049378093523780935B3780936437809373
:104BC0006D378093763780937F37809388378093D3
:104BD000913780939A378093A3378093AC37809333
:104BE000B5378093BE378093C7378093D037809393
:104BF000D9378093E2378093EB378093F4378093F3
:104C0000FD378093063880930F388093183886E0FC
:104C1000ECEBFAEBAAE2B8E301900D928A95E1F78A
:104C20001092303888EF809331381092323823E96F
:104C3000E22E23E3F22E38E2332E4E0116E0810EEF
:104C4000911C4EEF442E4AEC542E4EE7642E41EA5E
:104C5000742E11E000E15E012DE0A20EB11C6E0188
:104C60003EE1C30ED11C1982D401E32D1D92EA95B9
:104C7000E9F74A825B826C827D821C87D501E02F36
:104C80001D92EA95E9F7C5010E9496231D8FD60172
:104C9000E02F1D92EA95E9F7C6010E9496238DE266
:104CA000FE013196D70101900D928A95E1F7FDE260
:104CB000EF0EF11C27E4E21624E3F206A1F68CE2E3
:104CC000E2ECFAEBDE01119601900D928A95E1F784
:104CD0001093933380E294E0A6E2B0E289839A8352
:104CE000AB83BC8389E08D8325E02E8319871E87E3
:104CF00094E09F87898B88E68E8B188F84E6898F56
:104D000082E08A8F9AE09B8F97E09E8F28A389A3E9
:104D10009CE09AA39FEF9BA39AE59CA39CE39EA390
:104D200090E69FA39CE2FE013196A4E9B3E30190D3
:104D30000D929A95E1F79CE2E2ECFAEBDE01119616
:104D400001900D929A95E1F71093C03341E254E03F
:104D500066E270E249835A836B837C839BE09E8387
:104D60001F8388872D87998B23E02E8F8F8F18A321
:104D70009AA31BA39CE2FE013196A1ECB3E3019040
:104D80000D929A95E1F794E8EEEEFAEBDE011196BA
:104D900001900D929A95E1F798E09DAFED969FAF47
:104DA000ED97EE968FAFEE9741E0BE016F5F7F4FBC
:104DB0008DE19EE20E94C613CC57DF4FCDBFDEBF10
:104DC000DF91CF911F910F91FF90EF90DF90CF90E7
:104DD000BF90AF909F908F907F906F905F904F901B
:104DE0003F900895CF92DF92EF92FF92CF93E9E147
:104DF000FAE21282138288EE93E0A0E0B0E08483AE
:104E00009583A683B78325E83EEB2083318320E298
:104E100038E0248735871686C1E0C78724E0208BD9
:104E2000128A138A148A158A2BE1268B178A108E10
:104E30001092B22A1092B32AE4EBFAE212821382A1
:104E400084839583A683B7838FE99EEB80839183C8
:104E50000E94BA23A7E1BEE28FED9EEB8D939C9357
:104E6000119780E8C82E8AE1D82E86E0E82EF12C32
:104E70001296CD92DD92ED92FC921597E0E1FEE262
:104E800087EC9EEB80839183A283B38380E5848348
:104E900088E185831682E0930E2EF0930F2E8DE12C
:104EA0009EE28093D12C9093D22CE3EDFCE284E837
:104EB000DF011D928A95E9F7CF010E946D23C0930F
:104EC000572D1092582D1092592D10925A2D109244
:104ED0005B2D10925C2D10925D2D10925E2D109224
:104EE0005F2D1092602DE1E6FDE281E4DF011D926D
:104EF0008A95E9F7CF010E9417081092A22D10920F
:104F0000A32D1092A42D1092A52D1092A62D1092D3
:104F1000A72D1092A82D80E2E9EAFDE2DF01982F8B
:104F20001D929A95E9F7E9ECFDE2DF01982F1D92B9
:104F30009A95E9F71092E92D1092EA2D1092EB2D37
:104F40001092EC2D1092ED2DEEEEFDE2DF011D92A0
:104F50008A95E9F70E94561BE4E2FBE284E190E0C7
:104F60008083918382EC91E08283938386E4E8E2FC
:104F7000FBE2DF01982F1D929A95E9F7EEE6FBE23E
:104F8000DF01982F1D929A95E9F7E4EBFBE2DF0130
:104F90001D928A95E9F7C7E0EAEFFBE2DF018C2F6B
:104FA0001D928A95E9F7CF010E941207E1E0FCE229
:104FB000DF018C2F1D928A95E9F7CF010E9412071D
:104FC000E8E0FCE2DF018C2F1D928A95E9F7CF0122
:104FD0000E941207EFE0FCE2DF018C2F1D928A9500
:104FE000E9F7CF010E941207E6E1FCE2DF018C2F16
:104FF0001D928A95E9F7CF010E941207EDE1FCE2CC
:10500000DF011D92CA95E9F7CF010E9412071092A5
:10501000242C1092252CE6ECFCE28BE0DF011D92A3
:105020008A95E9F7E6E2FCE280EADF011D928A95C3
:10503000E9F70E941B07AEE1BBE283ED9EEB8D9387
:105040009C9311971296CD92DD92ED92FC9215975A
:10505000E0ECFAE2A083B1838CE3828380E1838376
:105060001482E5ECFAE288E5DF011D928A95E9F702
:1050700010921D2BCF91FF90EF90DF90CF9008956D
:10508000CF93DF93CDB7DEB7CD50D140CDBFDEBFDC
:1050900088ED90E084BF9093610080E094E2A4EFFB
:1050A000B0E08093002890930128A0930228B09349
:1050B0000328809102068660809302068091000694
:1050C000816080930006809102068F7C80930206A7
:1050D0008091A0008F788093A0008091020680616B
:1050E000809302061092E20581E08093E40583E05C
:1050F0008093010A8FEF90E08093260A9093270A0D
:1051000080E890E08093380A9093390A80933A0AB5
:1051100090933B0A80933C0A90933D0A8BE08093E6
:10512000000A8091E50581608093E5058091E505A1
:1051300082608093E505E0E8FAE027E09FEF10E861
:1051400085E021839487158780837096E03C0AE090
:10515000F007B9F780E094E08093132A9093142A23
:105160008091132A9091142A2FEF30E0B9010E9408
:105170008A376093112A7093122A8091132A909192
:10518000142AE8EEF3E0BF010E948A376093092AEF
:1051900070930A2A8091132A9091142ABF010E94C9
:1051A0008A378093072A9093082A2093BC0A309369
:1051B000BD0A8091B50A81608093B50A84E080932E
:1051C000B00A8091B00A81608093B00A789461E05F
:1051D00070E085E00E94340161E070E086E00E94AA
:1051E000340170E060E085E00E94940170E060E0CE
:1051F00086E00E9494010E944C1442E15AE760E06C
:1052000070E089E19AE20E940B0B1092C42A10927E
:10521000C52A1092DB2A1092F12A1092072B1092C5
:105220001D2B8091C02A9091C12ADC01ED91FC9147
:105230000480F581E02D09958111AFC000E062E0A6
:1052400070E082E00E94340162E070E083E00E943E
:10525000340162E070E084E00E94340161E070E0BB
:1052600089E00E94340161E070E08DE00E94340129
:1052700070E060E08CE00E94340161E070E089E061
:105280000E94940170E060E08DE00E94940161E072
:1052900070E08AE00E94340161E070E08BE00E94DF
:1052A000340161E070E08DE00E94340161E070E063
:1052B0008AE00E94940170E060E08BE00E9494011B
:1052C00070E060E08DE00E9494011092A62D0093A2
:1052D000A72D0E94561B1092162E8091122E90918F
:1052E000132EDC01ED91FC910480F581E02D0995F0
:1052F000182F882381F08091122E9091132EDC01BB
:10530000ED91FC910680F781E02D6091142E0995B6
:10531000182F8093162EF090C42A1093A62DF09289
:10532000A72DEFE8F0E0EC0FFD1F329684E2DF01DD
:105330001D928A95E9F70FEFCC56DF4F0883C459C9
:10534000D040C157DF4F1883CF58D040C057DF4FF0
:10535000F882C059D0400E944C14DD24D394CE561C
:10536000DF4FD882C259D040111137C08CEF91EC79
:10537000FF2011F089E092EC9F938F9389E09FEBDF
:105380009F938F931F9280E28F938FE890E08C0F12
:105390009D1F06969F938F93E8C06AE170E08AE4B0
:1053A0009DEB0E948D14882309F448CF81E08093FF
:1053B000C42AFE0131967F01DF011D921A95E9F79B
:1053C00010E0B701812F0E94E714082F882309F409
:1053D00036CF1F5F1830A9F732CF7E01B1EFEB0E49
:1053E000F11C80E1F70111928A95E9F7B7018EE08F
:1053F0009EE20E94051B8823A9F1E1EEF0E0EC0F8C
:10540000FD1F36968AE0DF011D928A95E9F78091AB
:10541000FFBD909100BEA09101BEB09102BECF51E0
:10542000DF4F88839983AA83BB83C15ED040CB5171
:10543000DF4FD882C55ED040CA51DF4F0883C65EB9
:10544000D040C951DF4F0883C75ED04080E1369716
:10545000D70101900D928A95E1F7B7018EE09EE2A7
:105460000E9425086E01B1E0CB0EDB1EF601108212
:105470001182D70115969C9100E0983010F490832A
:1054800001E0F7018681883038F4981729F0F60199
:10549000E00FF11D80830F5F5601992493948A2DAC
:1054A0008C19801708F066C0D5011D915D0184E854
:1054B000EEEEFAEBDE01119601900D928A95E1F77E
:1054C000183030F0CD56DF4F9882C359D040E7CF27
:1054D000AE014F5F5F4F612F8EE09EE20E942F1A58
:1054E0008111F0CF41E0BE016F5F7F4F8DE19EE201
:1054F0000E94C613F7011583B7018EE09EE20E9459
:10550000250881E0CF56DF4F8883C159D040CE5661
:10551000DF4F1882C259D040CC56DF4F1883C45990
:10552000D040612F70E06F5F7F4F7F936F9381E179
:1055300092EC9F938F931F9270E2F72EFF928E0151
:1055400005541F4F1F930F930E9496391F930F937B
:1055500089E09FEB9F938F931F92FF928FE890E0DB
:105560008C0F9D1F06969F938F930E949639CDBFF7
:10557000DEBF12C0CD56DF4F2881C359D0408FE81F
:1055800090E08C0F9D1F06966CE172EC211102C019
:1055900069E272EC0E948039C157DF4F8881CF5891
:1055A000D040882341F08EE09EE28093A42D90931A
:1055B000A52D0E942F1B11E01093A82D8FE890E0DD
:1055C0008C0F9D1F06969F938F9389E09FEB9F936F
:1055D0008F931F9280E28F9389EA9DE29F938F932E
:1055E0000E9496390E94561B1092572D1092612DE1
:1055F0001092A22D1092A32D0E941B070E94FA0167
:105600006093FB297093FC298093FD299093FE29D8
:105610002FB7F89480910D2A90910E2AA0910F2A0D
:10562000B091102A2FBF8093FF299093002AA09356
:10563000012AB093022A84529A4FAF4FBF4F8093F2
:10564000032A9093042AA093052AB093062A109364
:1056500004280E94DE0A0E94791D0E947418CDBFA2
:10566000DEBF2E013BEB430E511CA201465F5F4F94
:10567000C85FDE4F48835983C850D1406E015FE850
:10568000C50ED11C16018CE1280E311C009174BD91
:10569000109175BD209176BD309177BDC65FDE4F0C
:1056A000088319832A833B83CA50D14011E089E1E2
:1056B0009AE20E948702181619060CF08BC089E145
:1056C0009AE20E94650297FDF2CF8A3F09F44AC030
:1056D000E8F5883F09F441C02091D6353091D7359F
:1056E0002115310521F38091D2359091D335FC01FC
:1056F000EE0FFF1FEE5AFA4C4081518101968F73D5
:1057000099278093D2359093D33521503109209336
:10571000D6353093D7354093303850933138109385
:1057200032384130E9F120F1423009F449C04330C8
:1057300099F680911F2E813079F681E29EE20E94D7
:10574000BE091092A52E1092202E35C08B3F69F015
:105750008C3F11F66CEF83E002C068EF80E00E949E
:105760007B00BACF6AEF81E0FACF6BEF82E0F7CF30
:1057700080911F2E813009F0AFCF8091A52E81300E
:1057800009F0AACF04E08091A52E813011F40E9487
:10579000EE118DE19EE20E94A7120150A1F79CCF6D
:1057A00080911F2E813009F097CF8093202E81E2C7
:1057B0009EE20E9467128DE19EE20E94A7128CCFAA
:1057C00080911F2E813009F087CF8093202E809307
:1057D000A52E82CF80910428882309F44AC08FB770
:1057E000F89480900D2A90900E2AA0900F2AB090E5
:1057F000102A8FBF8091032A9091042AA091052A34
:10580000B091062AA5019401281B390B4A0B5B0BAA
:10581000DA01C901B7FF10C00E94EA0A0E94DE0A3D
:105820000E94791D0E94741880E090E0892B09F491
:105830003DCF0E9400003ACF109204288091572D4E
:1058400081110FC081E08093572D8091A82D88236E
:1058500041F069EA7DE289E392EC0E942B161092F6
:10586000A82D8092FF299092002AA092012AB0923E
:10587000022A8FB7F89440910D2A50910E2A609118
:105880000F2A7091102A8FBF8091FF299091002AD2
:10589000A091012AB091022A8A019B01081B190BD1
:1058A0002A0B3B0BD901C8010097A105B10509F4EA
:1058B000A2C24093FF295093002A6093012A70935B
:1058C000022ACD5FDE4F88839983AA83BB83C350AE
:1058D000D1400097A140B10560F02FEF3FEF40E0CD
:1058E00050E0CD5FDE4F288339834A835B83C3500A
:1058F000D140CD5FDE4F68807980C350D140809128
:10590000572D853019F58091EA2D8823F9F0CD5F68
:10591000DE4F88809980AA80BB80C350D14004EFBD
:1059200011E02091EC2D3091ED2DC801821B930BDD
:10593000B0E0A0E088169906AA06BB0608F013C1DD
:10594000820E931E8092EC2D9092ED2D8091612D10
:105950008823A9F08091A22D9091A32D6816790635
:1059600008F418C11092612D1092A22D1092A32D4F
:105970008091572D823019F481E08093572D86E273
:10598000D2011D928A95E9F7FE0131967F0185E0EB
:10599000DF011D928A95E9F770E060E089E00E94DE
:1059A00094018FE090E00197F1F761E070E089E009
:1059B0000E94940157014E01B6E08B0E911C07E046
:1059C00010E0C95FDE4F1882C750D14061E070E03F
:1059D0008DE00E9494018CE00E94D701002E01C04E
:1059E000880F0A94EAF7C95FDE4FE881C750D140BB
:1059F000E82BC95FDE4FE883C750D14070E060E01C
:105A00008DE00E9494010150110900F7D501C95F92
:105A1000DE4F0881C750D1400D935D018A169B0669
:105A200071F68201B12CAA24A3946B2DC7010E94A8
:105A300005088A25D8018D938D016AE06B0DC70199
:105A40000E9405088A25F801818764E16B0DC70172
:105A50000E9405088A25D80153968C93B394BAE026
:105A6000BB12E3CF2C81822F90E09695879580958D
:105A700090958170F20181A32095217022A38D81E0
:105A800090E09C01220F232F221F330B3195F1E070
:105A90002F272170D20193962C9393979C0146E077
:105AA000369527954A95E1F72095309521705F96B8
:105AB0002C935F9755E0969587955A95E1F78095D9
:105AC0009095817090968C9384E00E94D70121E09C
:105AD000892B09F020E0F201268F82E00E94D70195
